:100000000C944A010C9472010C9472010C947201CC
:100010000C9472010C9472010C9472010C94720194
:100020000C9472010C9472010C9465110C94D4110F
:100030000C9472010C9472010C9472010C94720174
:100040000C9472010C9450140C9472010C94720173
:100050000C9472010C9472010C9472010C940614AD
:100060000C9472010C9472010C9472010C94720144
:100070000C9472010C9472010C9472010C94720134
:100080000C9472010C9472010C9472010C94720124
:100090000C9472010C9472010C9472010C94720114
:1000A0000C9472010C9472010C94720103081F11DC
:1000B0001F000000000000121F10000000000000E0
:1000C0001D151700000000000015151F000000009E
:1000D000000007041F00000000000017151D0000AD
:1000E000000000001F151D000000000000011D039E
:1000F0000000000000001F151F0000000000001796
:10010000151F00000000000003081F111F1F111F12
:100110001F111F121F10121F10121F101D15171D67
:1001200015171D151715151F15151F15151F070474
:100130001F07041F07041F17151D17151D17151D71
:100140001F151D1F151D1F151D011D03011D030179
:100150001D031F151F1F151F1F151F17151F17150F
:100160001F17151F03081F051F1F151B1F11111F28
:10017000110E1F15111F05011F111D1F041F001F48
:100180000010101F1F041B1F10101F061F1F011F30
:100190001F111F1F05071F311F1F051B17151D01ED
:1001A0001F011F101F0F100F1F0C1F1B041B071C0C
:1001B000071915131F111F121F101D151711151FD9
:1001C00007041F17151D1F151D01011F1F151F17E0
:1001D000151F001700001000D5F08D14A1C881CFA5
:1001E000D9F1AF2000DB20C0A0D92181FFA800A851
:1001F00000A83FDCDCDCDCDCDCDCDCDCDCDCDCDCEC
:10020000DCDCE2E8F0F4FA0004080C1014181C20FE
:100210001C1916151516191C201D1B1A1A1B1C203B
:100220001E1D1E201F20080B0002020200000904F0
:100230000000010202000005240010010524010154
:1002400001042402060524060001070581031000AD
:100250004009040100020A000000070502024000F4
:100260000007058302400000040309041201000294
:10027000EF02014041233680000101020301417277
:100280006475696E6F204C4C430041726475626FF7
:1002900079009A1411241FBECFEFDAE0DEBFCDBF84
:1002A00011E0A0E0B1E0E0E3FAE402C005900D92B5
:1002B000AE33B107D9F727E0AEE3B1E001C01D923C
:1002C000A138B207E1F711E0CAE4D1E004C02197F8
:1002D000FE010E941025C934D107C9F70E94F41409
:1002E0000C9416250C94000080918007823038F021
:1002F00080917E07823010F081E0089580E00895BB
:100300000E947401882341F0813021F080917E07A2
:10031000823011F486E0089589E008952EE931E0F5
:10032000E3EEF5E0A0E0B0E0BD0180E00E94EB016B
:100330000E94DA01BD011296A20FB31F8217930724
:1003400099F38F5F9F4F21F4AF5FBF40DB0178F0DF
:100350000E94CA0540E0509187056091880580E2BF
:100360000E94DF01599A0E94A105A0E0B0E07CEF55
:100370000E94CA054A2F509187055B0F609188053E
:10038000611D82E00E94DF01832F71FD822F70FDCD
:1003900081910E94F701759518F42150304019F0B1
:1003A0001196AA2389F7599A0E94A10521153105B2
:1003B000F9F608950E942202982F0C942802599869
:1003C0000E94F701862F0E94F701852F0E94F701F6
:1003D000842F0C94F701462F50918705570F609199
:1003E0008805681F83E00E94DF011EBC08958EBD52
:1003F00000008EB50DB407FEFCCF0895E3EEF5E0E6
:10040000AEE9B1E060E070E080E00E94EB019D01A8
:10041000AF0160E00E941D028217930751F4D901D9
:10042000FA0160E00E94220281931197D9F761E0FE
:10043000F1CF0E942802862F08950E942202982F51
:100440000C9422020DB407FEFDCF8EB51EBC08959C
:100450000DB407FEFDCF8EB5599A0895FC01809129
:100460008505882311F13FB7F89482E08093E90075
:100470002091F200822F90E01816190614F481E002
:1004800090E0882339F0289844E640938405409111
:10049000F1004083222339F02091F200211103C0A2
:1004A0002BE62093E8003FBF08958FEF9FEF08955C
:1004B0002FB7F89483E08093E9009091E800892FAA
:1004C000807295FF04C09091F20080E4891B2FBFD9
:1004D000089580917C0581110DC082E0809378059C
:1004E00084E08093790510927B0510927A0581E073
:1004F00080937C0588E795E00895CF93DF931F9262
:10050000CDB7DEB76983DC01ED91FC910280F38108
:10051000E02D41E050E0BE016F5F7F4F09950F90E5
:10052000DF91CF91089583E08093E9008091F200FC
:10053000882319F08AE38093E80008950E94580206
:1005400090E00895CF93DF931F92CDB7DEB7FC0103
:100550008485958597FD08C02FEF3FEF3587248769
:100560000F90DF91CF910895CE0101960E942E0247
:10057000019719F4898190E0F3CF8FEF9FEFF0CFCF
:100580000F931F93CF93DF931F92CDB7DEB78C01EC
:10059000FC018485958597FF0BC0CE0101960E94D2
:1005A0002E02019771F4898190E0F8019587848784
:1005B000F801848595850F90DF91CF911F910F9160
:1005C00008958FEF9FEFF1CFFC018485958597FD0E
:1005D0000BC09FB7F89482E08093E9008091F2000D
:1005E0009FBF90E0019608959FB7F89482E08093B2
:1005F000E9008091F2009FBF90E00895409172055C
:100600005091730520917005309171054217530781
:10061000B4F49091E8009570E1F39091E80092FDB8
:1006200019C08093F1008091720590917305019635
:100630008F739927892B19F48EEF8093E8008091AE
:1006400072059091730501969093730580937205DE
:1006500081E0089580E00895DF92EF92FF920F937A
:100660001F93CF93DF93D82E8A01EB017B01E40E19
:10067000F51ECE15DF0559F0D7FE12C0FE0184919C
:100680000E94FE0221968111F4CF0FEF1FEFC801E7
:10069000DF91CF911F910F91FF90EF90DF90089520
:1006A0008881EECF0F931F93CF93DF931F92CDB727
:1006B000DEB782E0898342E450E066E272E080E8DF
:1006C0000E942C030E946902DC0112960D911C917C
:1006D0000115110589F0D801ED91FC910280F3819B
:1006E000E02DBE016F5F7F4FC801099597FD04C0E3
:1006F000F80100851185ECCF89810F90DF91CF91B2
:100700001F910F910895615030F02091F100FC018C
:1007100020830196F8CF289884E680938405089575
:10072000AF92BF92CF92DF92EF92FF920F931F93FF
:10073000CF93DF936C017B018B01040F151FEB013D
:100740005E01AE18BF08C017D10759F06991D601F4
:10075000ED91FC910190F081E02DC6010995892B66
:1007600079F7C501DF91CF911F910F91FF90EF9025
:10077000DF90CF90BF90AF9008954F925F926F92AD
:100780007F928F929F92AF92BF92CF92DF92EF9221
:10079000FF920F931F93CF93DF934C015901FC2DD0
:1007A000C02FD0E0CE01880D991D181619060CF047
:1007B00067C09B012E0D311D121613060CF060C090
:1007C000603471050CF05CC04115510509F458C046
:1007D000262F2770F22EDB0177FD179633E0B595B3
:1007E000A7953A95E1F73A2F77FF04C0FF2011F063
:1007F0003FEF3A0F662777276819790997FC02C0FF
:1008000070E060E0803891050CF44BC090E89819D6
:10081000961BA32F032E000CBB0B1A2F10953F3FE6
:100820000CF010E021E08E2D877009F420E0E694B2
:10083000E694E694E20EAE0DB11D19971CF028E087
:10084000E22EE31AE11A310F20E83203D00111241D
:10085000A80DB91DA60FB71F019F600D711D1124B2
:10086000460F571F0F2D0F2C000C110BF33009F4FE
:100870001CC1C8F4F13009F4D0C0F23009F47CC0D6
:10088000DF91CF911F910F91FF90EF90DF90CF906C
:10089000BF90AF909F908F907F906F905F904F90A0
:1008A0000895902FB5CFFA3FB1F1232F2E0DFB3FC6
:1008B00039F7321729F3BD016C5A7E4FD12CC12C68
:1008C000C91608F0A4C0FA01EC0DFD1DE491F0E09A
:1008D0004F01002E02C0880C991C0A94E2F737FDE4
:1008E00006C0FB018081E82CE0948E218083FF20EC
:1008F00061F0373054F45B01F0E8AF0EB11CE92C25
:10090000E094F50180818E218083FFEFCF1ADF0A0A
:100910006F5F7F4FD5CF232F2E0D321709F4B0CF45
:10092000BD016C5A7E4FD12CC12CC91608F069C08C
:10093000FA01EC0DFD1DE491F0E04F01002E02C024
:10094000880C991C0A94E2F737FD04C0FB018081F2
:1009500088298083FF2051F0373044F45B01F0E8B0
:10096000AF0EB11CF501808189298083FFEFCF1A7A
:10097000DF0A6F5F7F4FD9CF6FEF70E00F2C02C09F
:10098000660F771F0A94E2F760957095772E232FF4
:100990002E0D321709F474CFFD01EC5AFE4F6F0192
:1009A000B12CA12CA91638F5FA01EA0DFB1DE49132
:1009B000F0E02F01002E02C0440C551C0A94E2F70F
:1009C00037FD05C0F6018081862384298083FF20BE
:1009D00059F037304CF44601F0E88F0E911CF401C9
:1009E0008081872185298083FFEFAF1ABF0A8FEFAF
:1009F000C81AD80AD7CF3F5F4C0F5D1FA058BF4F12
:100A0000C8CF3F5F4C0F5D1FA058BF4F86CF3F5FE1
:100A10004C0F5D1FA058BF4F4CCF6A0D7B1D232F7D
:100A20002E0D321709F42CCFFD01EC5AFE4F6F0149
:100A3000B12CA12CA91688F5FB01EA0DFB1D8490B1
:100A4000912C002E02C0880C991C0A94E2F7809425
:100A50009094FA01EA0DFB1D6490712C002E02C0E7
:100A6000660C771C0A94E2F737FD05C0F601808119
:100A7000882186298083FF2049F037303CF4F60135
:100A8000E058FF4F8081892187298083FFEFAF1ACB
:100A9000BF0A8FEFC81AD80ACDCF3F5F4C0F5D1F3A
:100AA0006C0F7D1FA058BF4FBCCFC92ED12CFA01AF
:100AB000E60FF71FAC5ABE4F00E810E00C191D09F5
:100AC000CC19DD09BE01660F771F41E050E06A01D5
:100AD0000F2C01C0CC0C0A94EAF7592F2E2D792E39
:100AE000CF93DF93ED01EF96EF9622968590A59038
:100AF000FF2059F08C9C4001AC9C500137302CF405
:100B0000E880B094EB20E928E99233233AF0EC90A6
:100B1000A094EA20E828ED920C948F0511965A953E
:100B200029F72A9551F0572D33951124E60FF11D21
:100B3000A00FB11DC00FD11DD9CFDF91CF911124CE
:100B40009FCE599885E00E94F70180E00E94F7014E
:100B500080FDFBCF599A089590E0409F09F4142E30
:100B60005527090E151E600D711D851F11240C944B
:100B7000B905462F50915201570F60915301681FDC
:100B800083E00E94DF011EBC089559980E94F7017E
:100B9000599A089586E00C94C505FC010E946806E8
:100BA000319728F068517C4F8F4F9F4FF9CFAB01A1
:100BB000FC010E946806641775078E079F07C8F33B
:100BC000089585E090E00C94CD058F929F92AF92AE
:100BD000BF92CF92DF92EF92FF920F931F93CF932A
:100BE000DF936C017B018A0180910B01882309F45A
:100BF0005AC080918505882309F455C080917705F6
:100C000080FF05C08091E00082608093E000E801F1
:100C1000B12C8AEFA82E93E0892E2AE3922E2097FA
:100C200011F4BB20C9F10E945802811108C0AA9496
:100C3000AA20C9F181E090E00E94CD05F0CF8C1789
:100C40001D0611F00CF08C2F9FB7F8948092E900EC
:100C50002091E80025FD02C09FBFE1CF282F30E0A2
:100C6000C21BD30BF701815020F041914093F1005A
:100C7000FACFE20EF31EBB2021F09092E800B12CD7
:100C8000EBCF8091E80085FDE7CF9092E800BB2490
:100C9000B394209709F3F3CF5D9884E680937605AB
:100CA000101611063CF081E090E0F60193838283F8
:100CB00010E000E0C801DF91CF911F910F91FF90EC
:100CC000EF90DF90CF90BF90AF909F908F9008955E
:100CD000AEE4B1E02FB7F8947D918D919C9166B50B
:100CE0002FBFA89B05C06F3F18F47F5F8F4F9F4FAA
:100CF00022E0660F771F881F991F2A95D1F7089564
:100D0000CF92EF920F93CF93DF93EC01962F6E81EA
:100D10009A3069F48D818C838985680F6E8381E0B8
:100D200090E0DF91CF910F91EF90CF9008959A339B
:100D300078F4903308F049C0913209F448C09E32EB
:100D400009F441C098859D5F8C81890F8C83E7CF22
:100D500091549A31B8F76F5F062E000C770BAC8177
:100D60000A2E000CBB0BE4E6F1E025E631E08F81B2
:100D7000813079F50491F901E49046E651E0992338
:100D8000D1F041E050E08E2D877011F450E040E04A
:100D90002E2D269526952695240F352F311D029F41
:100DA000F001039FF00D11249E9FA0019F9F500D05
:100DB00011244A595E4F9AEFC92E30E020E0CD0150
:100DC0000E94BD03BFCF95E2C6CF9651C4CF94E237
:100DD000C2CF0491F901E49046E651E09923D1F0A5
:100DE00041E050E08E2D877011F450E040E02E2D50
:100DF000269526952695240F352F311D029FF0014B
:100E0000039FF00D11249E9FA0019F9F500D112460
:100E10004A595E4F8BEFC82ED0CF089590E080E006
:100E20000895833019F020F4813031F481E0089581
:100E30008B30E1F38531D1F380E008950F931F9358
:100E4000CF93DF93D82FC62F823068F02CE0629FBB
:100E5000F0011124ED51FA4FE80FF11D82810E943B
:100E60001107811149C000917E0710E00D511A4F02
:100E7000F801E157FE4F8081D81768F43CE0C39F2A
:100E8000F0011124ED51FA4FED0FF11D84810E9404
:100E90001107811131C0C23098F02C2F2150330B33
:100EA000C9012CE0289FF001299FF00D1124ED517C
:100EB000FA4FED0FF11D83810E94110781111CC0B3
:100EC000F801EE56FE4F8081C817A8F46C2F70E031
:100ED0006F5F7F4F8CE0869FF001879FF00D11249C
:100EE000ED51FA4FED0FF11D8381DF91CF911F91ED
:100EF0000F910C94110780E0DF91CF911F910F911A
:100F00000895843019F020F4823031F481E008959E
:100F10008C30E1F38631D1F380E008956F927F92B7
:100F20008F929F92AF92BF92CF92DF92EF92FF92F9
:100F30000F931F93CF93DF9380917E0790E08D51A5
:100F40009A4FFC01EE56FE4F008181579E4FFC01E7
:100F5000D080ED2CF12CFFEFEF1AFF0AC1E08CE0FE
:100F6000C82E0C1768F1D1E0712C10E0AC2EB12C1A
:100F7000CA9CC001CB9C900D11249C012D513A4F6D
:100F80004901DD1680F0F401ED0FF11D6380862D1F
:100F90000E94810781117394862D0E94110781118F
:100FA0001F5FDF5FEECFCA9CF001CB9CF00D1124D8
:100FB000ED51FA4F7382EE0DFF1D1383CF5FD1CF3A
:100FC00011E0802F90E001964CE0489F9001499FEE
:100FD000300D1124C9018D519A4F5C01D11630F1A9
:100FE000C12FD0E0FE01ED51FA4F4F01CC24C39444
:100FF000E12CF12C0C1588F0F4017784872D0E94E8
:1010000081078111E394872D0E9411078111F394C8
:10101000C394FCE08F0E911CEDCFFE01ED51FA4F11
:10102000E382CA0DDB1DFB821F5FD8CFDF91CF911A
:101030001F910F91FF90EF90DF90CF90BF90AF90F6
:101040009F908F907F906F9008950F931F93CF93F1
:10105000DF93D82FC62F823068F02CE0629FF0011A
:101060001124ED51FA4FE80FF11D82810E94810792
:10107000811149C000917E0710E00D511A4FF8010F
:10108000E157FE4F8081D81768F43CE0C39FF00120
:101090001124ED51FA4FED0FF11D84810E9481075B
:1010A000811131C0C23098F02C2F2150330BC9016F
:1010B0002CE0289FF001299FF00D1124ED51FA4FEB
:1010C000ED0FF11D83810E94810781111CC0F80181
:1010D000EE56FE4F8081C817A8F46C2F70E06F5F4A
:1010E0007F4F8CE0869FF001879FF00D1124ED511A
:1010F000FA4FED0FF11D8381DF91CF911F910F9179
:101100000C94810780E0DF91CF911F910F9108959A
:101110001F93CF93DF93182FC62F8CE0689FF001A9
:101120001124ED51FA4FE10FF11DD381D43089F034
:1011300060F4D13099F0D43081F1D8F46C2F81E093
:10114000810FD13029F180E010C0DB3039F0D63189
:1011500091F76C2F812F0E94250804C06C2F812FDE
:101160000E941E07882339F381E0DF91CF911F9100
:101170000895DB3051F061E06C0F812FD63119F703
:10118000DF91CF911F910C941E0761E06C0F812FAE
:10119000DF91CF911F910C9425086C2F81E0810F76
:1011A000EFCFDF92EF92FF920F931F93CF93DF93D6
:1011B00010927D0780917E0790E08D519A4FFC013F
:1011C000EE56FE4FD08121E03CE08C0101571E4FCE
:1011D000D217D0F581579E4FDC01DC9041E08D2F76
:1011E00090E001965CE0589F9001599F300D1124CA
:1011F0002D513A4F7901B7E8EB0EF11CB9016D5F43
:101200007F4FD41608F04BC08FEEE82E85E0F82E05
:10121000C1E0DC1708F47AC001E010E0802FD0169E
:1012200008F46FC0F701E00FF11F93819B3009F4C0
:1012300060C008F053C0913009F45BC0943009F4E9
:1012400054C00F5F1F4FEACF422F50E0349FF00190
:10125000359FF00D1124ED51FA4FBF0169577F4FB3
:10126000DB016C916F3F19F07381671348C0D8019F
:10127000EC91349FB001359F700D1124E60FF72FCC
:10128000F11DEC51FA4FAF0149575F4FDA014C9114
:101290004F3F19F05381451332C02F5F99CF842FF0
:1012A00090E0FC01ED51FA4F8F0109571F4FD80113
:1012B0005C915F3F19F0E3815E1321C0820F931FA1
:1012C000FC01E957FF4F80818F3F31F0F70190819A
:1012D000DB018C91981313C04F5F93CF933379F058
:1012E0009D3369F0963109F0ACCF6C2F0E94250830
:1012F00003C06C2F0E941E07882309F4A2CF80E050
:1013000008C0CF5FBCE0EB0EF11C83CF81E080937F
:101310007D07DF91CF911F910F91FF90EF90DF90AC
:10132000089530E73CBDDC0130E8439FC001112443
:10133000A80FB91F5E91352F6111372F3C93C895C7
:1013400000C052235EBD0197A9F704D003D030E559
:101350000DB43CBD089580915405882329F0815037
:101360008093540581E0089580E0089580914601BE
:10137000809347019FB19095907F669B98601C9BDE
:101380009460909346018095892308954F925F92CF
:101390006F927F928F929F92AF92BF92CF92DF9285
:1013A000EF92FF920F931F93CF93DF933701802E1D
:1013B000803891050CF0CBC0603471050CF0C7C0CB
:1013C000A42FB0E0FD01E80FF91F1E161F060CF058
:1013D000BEC0022F10E0F801E60FF71F1E161F0611
:1013E0000CF0B5C0C114D104A1F026952695269520
:1013F000A0FC220F249FF001ED9D700C811CFC9D30
:10140000700C811CFD9D800CEC9D600C711C1124E6
:10141000811C102F00272801442A5B2AD52DA4E522
:10142000B1E0E82FCC24942CD695D695D695F1E052
:1014300061FDF4E060FDFF0F62FDF29544274095E9
:10144000542FA2FC05C01FEF1F9FA001409550958F
:10145000759567957595679575956795062F0F3FF7
:101460004CF40095D01BA0FC000F049D600C711C77
:101470008C1C0FEF97FF0BC0980EA0FE02C0880FC8
:10148000991F681A790A8C0897FD8394EE2710E853
:1014900001030E0EA00DB11D1E1B911608F0912E1A
:1014A00017E0101B1D1714F4D12FC39410E819195D
:1014B000242D3327A1FC02C02919330BA0FE02C042
:1014C000220F331F1124F12EB02EDF2EA11050C099
:1014D000F3018D2F01158CF4A058BF4F992D659104
:1014E0006D9D1C91152311291D939A95C1F7112407
:1014F0008A95A919B109E20FF31F8823E9F0CF9368
:10150000DF93ED01C058DF4F992D65916D9D1C91C2
:10151000142310291D9318811523112919939A95C5
:10152000A1F71124AF0DB11DCF0DD11DE20FF31F97
:101530008A9551F7DF91CF91CC2041F065916D9D57
:101540001C91142310291D939A94C1F71124DF9143
:10155000CF911F910F91FF90EF90DF90CF90BF90B0
:10156000AF909F908F907F906F905F904F90089575
:1015700001E0A01250C0F3018D2FB114B4F4A058B3
:10158000BF4F992D459165914D9DA0016D9DB00175
:101590001C9170951723152B1D939A9599F711247B
:1015A0008A95A919B109E20FF11D882319F1CF938A
:1015B000DF93ED01C058DF4F992D459165914D9D09
:1015C000A0016D9DB0011C9160951623142B1D93F5
:1015D000188170951723152B19939A9571F711247B
:1015E000AF0DB11DCF0DD11DE20FF11D8A9521F771
:1015F000DF91CF91CC2069F0459165914D9DA0017F
:101600006D9DB0011C9160951623142B1D939A9427
:1016100099F711249CCF63E000905201700C009068
:101620005301801C18C059986EBD620E731E811C38
:10163000EE24491409F0E3940CD08EBC07D07EBC94
:1016400005D06EBC03D01EBC03D00895C895000021
:10165000C895C8950895621A730A8108E4DFB11429
:101660001CF0DD2371F564C0A058BF4F792DA0FC9C
:101670000CC08EB51EBC8D9D1C91152311291D9388
:10168000C89500C07A95A9F711C08EB51EBC8D9D76
:10169000C001DEDF4EB51EBC4D9DA0011C915095D2
:1016A0001523192B1D93C8957A9579F71124A9193B
:1016B000B109DA9509F45CC0EE2019F00DB4599A1D
:1016C000B2DFFD01E058FF4F792DA0FC0EC08EB5B2
:1016D0001EBC8D9D1C91142310291D931081152370
:1016E000112911937A9599F716C08EB51EBC8D9D60
:1016F000C0011C915081AEDF00C04EB51EBC4D9D97
:1017000000941021182B1D9310945121592B5193A3
:1017100000007A9551F71124AF0DB11DDA9561F6ED
:10172000CC2031F1EE2021F00DB4599A7CDFC89520
:10173000A0FC0CC08EB51EBC8D9D1C9114231029DD
:101740001D93C89500C09A94A9F712C08EB51EBC0F
:101750008D9DC0017DDFDEB51EBCDD9DD02D1C91B1
:10176000D0951D23182B1D93C8959A9479F7C89589
:101770001124599A0DB4EBCE7F928F929F92AF9223
:10178000CF92DF92EF92FF920F931F93CF93DF934D
:10179000EC014B016901E42E842FB9010E94B905C7
:1017A0000E942202782E0E9428024E2D96012E5F62
:1017B0003F4F4F4F93E0A92E68017901042F282F46
:1017C000472DB401CE010E94C609DF91CF911F9130
:1017D0000F91FF90EF90DF90CF90AF909F908F9000
:1017E0007F9008957F928F929F92AF92CF92DF92D7
:1017F000EF92FF920F931F93CF93DF93EC014B0176
:101800006901E42E842FB9010E94B9050E942202C9
:10181000782E0E9428024E2D96012E5F3F4F4F4F8B
:1018200092E0A92E68017901042F282F472DB401D9
:10183000CE010E94C609DF91CF911F910F91FF90B9
:10184000EF90DF90CF90AF909F908F907F90089512
:10185000EF92FF920F931F93CF93DF93C82FD0E0A7
:10186000E0906005F09061058E0126E53EE940E0DC
:101870006DEF7FEFC7010E94F20B26E53EE940E0E5
:101880006DEF7FEFC7018C5C91090E94F20BE09035
:101890006205F090630524E835EA40E06BE270E011
:1018A000C7010E94F20B24E835EA40E06BE270E0E9
:1018B000C70184539F4F0E94F20BDF91CF911F917C
:1018C0000F91FF90EF900895CF92DF92EF92FF92E9
:1018D0000F931F93CF93DF93082F0E94280CC09182
:1018E0006F05C63028F0C83060F0CC3008F463C013
:1018F000DF91CF911F910F91FF90EF90DF90CF90EC
:101900000895C0905705D0905805E02EF12C88E23C
:10191000C816D104B8F1D0E08FEBC816D104E8F5B1
:1019200068E270E06C197D0977FF02C06D5F7F4F40
:10193000759567957595679587012EE638EB40E0BC
:1019400084E090E00E94BC0B26978E01000F111FCF
:101950000C0F1D1F0E0D1F1DB6016852710977FF78
:1019600002C06D5F7F4F7595679575956795719509
:1019700061957109605C7F4F2DEB38E340E080E5B5
:1019800090E008C087012EE638EB40E070E060E0B0
:1019900084E090E00E94BC0BABCF26978E01000F35
:1019A000111F0C0F1D1F0E0D1F1D2DEB38E340E006
:1019B0006BE170E0E4CFC650DD0B7E01EE0CFF1C46
:1019C000CE0DDF1D0C0F1D2F111D2DEB38E340E058
:1019D0006FE070E0D4CFAF92CF92DF92EF92FF92A0
:1019E0000F936901FA01459125917F01FF0F000BCB
:1019F000A12C0E94C6090F91FF90EF90DF90CF902D
:101A0000AF9008952F923F924F925F926F927F9284
:101A10008F929F92AF92BF92CF92DF92EF92FF92FE
:101A20000F931F93CF93DF93CDB7DEB729970FB6F0
:101A3000F894DEBF0FBECDBFA82E69878BE08983E7
:101A40008AE08A838B8389E08C83809164059091FE
:101A500065058F739927809750F480916F058031C9
:101A600009F466C0875121E02D83823008F01D8281
:101A70000E94740190917E07882309F45CC0813034
:101A800009F05DC0923009F05AC090917C07963001
:101A900008F455C0963009F46AC09CE0282F30E065
:101AA000FE01E20FF31F41814E83F381FF83BB24CC
:101AB000B394C92ED12CEE24FF24EC18FD086A2C17
:101AC000712C442E512C23E0222EE0917E07F0E071
:101AD000EE58F84F80818B1508F455C00B2D10E09F
:101AE00098012D513A4F4901F901E957FF4F3080D4
:101AF0003FEF3316D9F00E94800101501109482FA1
:101B0000409FC001419F900D1124840D951DF4014B
:101B10002381231130C0A301229D400D511D1124AA
:101B20009A0148E051E0B7010E94EB0CB394CDCF8D
:101B300031E03D839DCF913021F0923051F090E023
:101B4000ADCF90917C079630D0F3963091F092E132
:101B5000A5CF90917C07943090F3983010F094E2E8
:101B60009DCF29E0929F902D1124945297CF96E01B
:101B700095CF99E093CF9301329C200D311D112414
:101B80004CEA50E0D0CFBB24B3948A2C912C5F81D7
:101B9000452E512C4C185D0893E0292EE0917E07CC
:101BA000F0E0EB58F84F80818B15B0F10B2D10E071
:101BB000ECE0E09FC001E19F900D11249C012D51AC
:101BC0003A4F3901F901E957FF4F30803FEF3316A3
:101BD000D1F00E94800101501109809FB001819FC6
:101BE000700D1124640D751DF3018381940183111F
:101BF0000CC0829D200D311D112448E051E082E08F
:101C000090E00E94EB0CB394C9CF329C200D311DA3
:101C100011244CEA50E0F3CFBB24B3948A2C912CCE
:101C20008BE090E02C014C185D08FE816F2E712C2A
:101C300080917E0790E08D519A4FFC01EE56FE4F49
:101C4000208081579E4FFC0180818B1508F440C095
:101C5000822D90E001960B2D10E02CE0289FF001E2
:101C6000299FF00D1124ED51FA4FE00FF11FDF0114
:101C7000A957BF4F3C903FEF331601F143814E838C
:101C80000E948001B201289E600D711D1124015037
:101C90001109809F9001819F300D1124C901860D8B
:101CA000971D5E81940153110BC0F3E05F9F200DDF
:101CB000311D112448E051E00E94EB0CB394B8CFE1
:101CC00043E0349E200D311D11244CEA50E0F4CF46
:101CD000552453948A2C912C5F81652E712C6C189D
:101CE0007D0883E0282E80917E0790E08D519A4FE9
:101CF000FC01EE56FE4F20812515D8F1052D10E090
:101D000081579E4FFC01B0802CE0209FF001219F65
:101D1000F00D1124EB0DF11DEC51FA4FDF01A95725
:101D2000BF4F4C903FEF4316D9F033800E948001A3
:101D300001501109809FB001819F700D1124660D23
:101D4000771DB89EC00111240C96940134100AC06E
:101D5000329C200D311D112448E051E00E94EB0C13
:101D60005394C1CF429C200D311D11244CEA50E008
:101D7000F5CFB12C850120E630E141E0B70190E0DC
:101D800080E00E94F20B69E070E04B018C189D0826
:101D900020917E07022F10E00E94800198012D51B2
:101DA0003A4FF901EE56FE4F9081B401899F600DC4
:101DB000711D112421573E4FF9019081899FC00167
:101DC000112485012AE730E141E009960E94F20BD7
:101DD00022242394E0917E07F0E0EB58F84F8081B5
:101DE000821508F4E6C133243394422C512CFCE0D4
:101DF000F49DC001F59D900D11249C012D513A4F89
:101E000038872F83320131E0631A7108E0917E0731
:101E1000F0E0EE58F84F8081831508F4C8C1E32C38
:101E2000F12CEF81F885EE0DFF1D13810E947401E6
:101E3000813009F44DC080E00CE0080F163109F440
:101E4000EEC041E0430D4E83173108F043C014301B
:101E500009F47EC01B3009F4AFC0113009F041C055
:101E60005D81552399F020917B07321204C0909137
:101E70007C07291649F02150330BE216F30631F4A2
:101E800090917C07291202C00FE0080F0E94800188
:101E9000282F30E00A0D1B2D111D629EB001639E9C
:101EA000700D729E700D1124680D791D81E0E81A85
:101EB000F108E29EC001E39E900DF29E900D112468
:101EC00020E231EF40E009960E94BC0B3E8009C041
:101ED00086E0B2CF193209F406C128F41F3109F4A3
:101EE000CEC0339493CF133309F42DC11D33C9F7FA
:101EF0009D81992379F090917B0739120BC0209135
:101F00007C07221629F02150330B4216530611F498
:101F10000FE0080F0E948001282F30E00A0D1B2DD2
:101F2000111D629EB001639E700D729E700D112492
:101F3000680D791DE1E0EE1AF108E29EC001E39E12
:101F4000900DF29E900D11242EE63BE041E063C01F
:101F50009D81992399F020917B07321204C09091C2
:101F60007C07291649F02150330BE216F30631F4B1
:101F700090917C07291202C00FE0080F0E94800197
:101F8000282F30E00A0D1B2D111D629EB001639EAB
:101F9000700D729E700D1124680D791DE1E0EE1A2E
:101FA000F108E29EC001E39E900DF29E900D112477
:101FB00022E534EF40E087CFFD81FF2379F0909157
:101FC0007B0739120BC020917C07221629F0215083
:101FD000330B4216530611F40FE0080F0E948001E4
:101FE000282F30E00A0D1B2D111D629EB001639E4B
:101FF000700D729E700D1124680D791D41E0E41A78
:10200000F108E29EC001E39E900DF29E900D112416
:1020100024E837EF40E009960E94BC0B62CF5D8157
:10202000552379F090917B0739120BC020917C07E2
:10203000221629F02150330B4216530611F40FE0FB
:10204000080F0E948001282F30E00A0D1B2D111D62
:10205000629EB001639E700D729E700D1124680D1A
:10206000791D81E0E81AF108E29EC001E39E900D1F
:10207000F29E900D112426E03CEF40E0CCCF9D81F4
:10208000992399F020917B07321204C090917C072C
:10209000291649F02150330BE216F30631F49091E2
:1020A0007C07291202C00FE0080F0E948001282F30
:1020B00030E00A0D1B2D111D629EB001639E700D54
:1020C000729E700D1124680D791DE1E0EE1AF10881
:1020D000E29EC001E39E900DF29E900D112428E82F
:1020E00030E041E0F0CEFD81FF2379F090917B0755
:1020F00039120BC020917C07221629F02150330B96
:102100004216530611F40FE0080F0E948001282F99
:1021100030E00A0D1B2D111D629EB001639E700DF3
:10212000729E700D1124680D791D41E0E41AF108CA
:10213000E29EC001E39E900DF29E900D11242AEBC9
:1021400033E041E068CF5D81552399F020917B0712
:10215000321204C090917C07291649F02150330BAC
:10216000E216F30631F490917C07291202C00FE0C9
:10217000080F0E948001282F30E00A0D1B2D111D31
:10218000629EB001639E700D729E700D1124680DE9
:10219000791D81E0E81AF108E29EC001E39E900DEE
:1021A000F29E900D11242CE338E041E08CCE239474
:1021B00011CEF985FF2309F457C00E9474018111E3
:1021C00083E0A80EB11C10917C070E948001189F2B
:1021D000B00111246C197D09850122E530E141E04F
:1021E00087E090E00E94BC0B10917C070E94800168
:1021F000189FB00111246C197D09E0917E07F0E071
:10220000EE58F84F9081899FC0011124850122E585
:1022100030E141E009960E94BC0BF0907B070E94E0
:10222000800167E070E06C197D0920EF3FE041E03C
:10223000F89EC00111240E94BC0B0E948001E09115
:102240007E07F0E0EB58F84F9081B401899F600D54
:10225000711D112490917B0720EF3FE041E0899FA1
:10226000C00111240E94BC0B29960FB6F894DEBF62
:102270000FBECDBFDF91CF911F910F91FF90EF90D7
:10228000DF90CF90BF90AF909F908F907F906F9096
:102290005F904F903F902F9008955C98FC0125919E
:1022A000CF012EBD00000DB407FEFDCF6150B1F788
:1022B0005C9A08952D980E948E0180E28093860595
:1022C00008952E9A2F9A2D9A08951F920F920FB665
:1022D0000F9211248F939F938091E1009091E100E0
:1022E000937F9093E10083FF0FC01092E90091E08B
:1022F0009093EB001092EC0092E39093ED0010921B
:10230000850598E09093F00082FF22C093E09093BF
:10231000E9009091F200992319F09AE39093E80074
:1023200090917605992341F0909176059150909384
:102330007605911101C05D9A90918405992341F031
:1023400090918405915090938405911101C0289A31
:1023500084FF18C08091E2008E7E81608093E2004D
:102360008091E1008F7E8093E100809177058E7EE1
:102370008061809377059F918F910F900FBE0F9092
:102380001F90189580FFF7CF8091E2008E7E8061CC
:102390008093E2008091E1008E7E8093E100809145
:1023A00077058E7E8160E5CF1F920F920FB60F9258
:1023B0001124CF92DF92EF92FF920F931F932F93EE
:1023C0003F934F935F936F937F938F939F93AF93BD
:1023D000BF93EF93FF93CF93DF93CDB7DEB76C97A7
:1023E000DEBFCDBF1092E9008091E80083FF25C0D9
:1023F00068E0CE0145960E94830382EF8093E80057
:102400008D8987FF39C09091E80090FFFCCF982F0D
:10241000907609F034C19E894F89588D2F89F88CA8
:10242000911131C0803861F5809175058093F1007C
:102430001092F1008EEF8093E8006C960FB6F8943E
:10244000DEBF0FBECDBFDF91CF91FF91EF91BF9166
:10245000AF919F918F917F916F915F914F913F913C
:102460002F911F910F91FF90EF90DF90CF900F90E1
:102470000FBE0F901F9018959EEF9093E800C7CF66
:102480001092F100D5CF913059F48111D3CF413062
:10249000510581F6809175058D7F80937505CACFB2
:1024A000933049F48111C6CF4130510519F680911E
:1024B00075058260F2CF953041F48091E80080FF8D
:1024C000FCCF20682093E300B5CF963009F0A9C077
:1024D0000B8D1C8D22E01092E90010927305109272
:1024E0007205F2122EC010927105109270050E94B2
:1024F00052031F8299E09983FA8291E09E8390EAC9
:1025000098879AEF99872091720530917305275F1C
:102510003F4F3C832B838D831092E900109273050B
:1025200010927205109371050093700549E050E018
:10253000BE016F5F7F4F80E00E942C030E94520318
:1025400079CF10937105009370050E946902DC0138
:1025500012960D911C910115110509F451C1D80174
:10256000ED91FC910480F581E02DBE016B5E7F4F03
:10257000C8010995009709F03EC1F8010085118551
:10258000EACFF3E0FF120EC08F89882309F440C020
:10259000823061F440E867E08AE892E00E946714C4
:1025A000811148CF81E28093EB0047CF813029F43D
:1025B00040E86BE08EE792E0F1CF833099F70E941C
:1025C0006902DC011296ED90FC908E010F5F1F4FA7
:1025D0006801E114F10479F0D701ED91FC910680D6
:1025E000F781E02DB801C7010995080F111DF7010A
:1025F000E084F184EECFD8011C92F6010190002016
:10260000E9F73197BF016C197D0940E0C601C6CFDB
:1026100068E672E0FB01449150E080E80E942C03E0
:1026200009CF973009F4BECF983021F481E0809330
:10263000F10000CF993009F0FDCE837009F0B2CFE0
:10264000EAE1F1E081E031E096E32191222371F0AB
:102650008093E9003093EB00DF0111972C912093D8
:10266000EC009093ED008F5F873079F78EE78093D1
:10267000EA001092EA008F8980938505DBCE8B8D6E
:102680009C8D1092E9001092730510927205909340
:10269000710580937005898D811192C08E899D8905
:1026A000913A49F4813209F07DCF47E050E064E08F
:1026B00071E080E0B3CF913209F074CF833269F4D6
:1026C0008F89988DB0E0A0E0809300019093010184
:1026D000A0930201B0930301ADCE803269F48091E2
:1026E000E80082FFFCCF67E084E091E00E94830372
:1026F0008BEF8093E8009ECE823209F09BCE8F89CB
:1027000080930B01EEEFFFE7859194918B3F9C4DF9
:1027100051F1E0E0F8E08091040190910501A09171
:102720000601B0910701803B9440A105B105F1F489
:1027300080910B0180FD1AC0EE3F8AE0F80789F511
:1027400087E797E791838083809160008093740589
:1027500088E19BE00FB6F894A895809360000FBEC7
:102760009093600067CEEEEFFAE0D5CF8081918143
:102770008737974709F05ECEA89580916000886101
:10278000809360008091740580936000EE3F2AE0A2
:10279000F20789F08091FE0A9091FF0A918380836D
:1027A00049CE808191818737980751F29093FF0A33
:1027B0008093FE0AC5CF1092FF0A1092FE0A3ACE0D
:1027C0000E946902DC0112960D911C910115110500
:1027D00009F4E8CED801ED91FC910190F081E02D53
:1027E000BE016B5E7F4FC8010995811123CEF801B0
:1027F00000851185EBCF181619060CF41BCED2CE2E
:10280000F1E0FF12BECE6CE672E004CF0F920FB67D
:102810008F939F93EF93FF93809149018D5F8D3745
:1028200008F08D5780934901EAE4F1E080818E4FF2
:10283000808391819F4F918382818F4F8283838197
:102840008F4F8383EEE4F1E080818F5F808381810D
:102850008F4F818382818F4F828383818F4F8383C8
:102860008FB18F6066991C9B88278F3681F4809189
:102870004801981B963068F0E0E0F8E087E7808335
:10288000818388E180936000F0936000FFCF909394
:102890004801FF91EF919F918F910FBE0F90189576
:1028A0001F920F920FB60F9211248F939F9382E481
:1028B00096E0909389008093880081E0809355058D
:1028C0009F918F910F900FBE0F901F901895EF92D0
:1028D000FF920F931F93CF93DF93F82E192FE62EBD
:1028E000042F81E0860F880F0E94FE0283E00E9481
:1028F000FE02CF2DD12FEC0EFD2EF11CCE15DF05E3
:10290000B9F007FF13C0FE0184910E94FE02182F48
:1029100080E00E94FE02812321968111EFCFDF919A
:10292000CF911F910F91FF90EF9008958881EDCF87
:1029300081E0F5CFE9E8F5E01382128288EE93E0BA
:10294000A0E0B0E084839583A683B78384E291E01E
:10295000918380838FEF9FEF95878487E3EEF5E087
:10296000118282E082838091100190911101A091E7
:1029700012018093720790937307A093740780915C
:10298000130190911401A091150180937507909304
:102990007607A09377078091160190911701A09177
:1029A00018018093780790937907A0937A0781E0C4
:1029B00080937B0780937C0710927D0710927E079F
:1029C00010927F0710928007E9EDF5E013821282E2
:1029D00026E331E03183208398E091878087158258
:1029E0001682148287830895CDB7DEB76397DEBF62
:1029F000CDBF789483E084BD83E085BD81E0809382
:102A00006E00E1E8F0E083E08083E0E881E080832D
:102A1000E1E983E08083E0E981E08083E1EC87E025
:102A20008083E3EC81E08083E0EC82E08083E2EC71
:102A300081E08083EAE787E080838068808310926A
:102A4000850510927505109277058091D7008160F9
:102A50008093D70080EA8093D80089B5806189BDD2
:102A600089B5826089BD09B400FEFDCF81E090E0A8
:102A70000E94CD058091D8008F7C80618093D80022
:102A80008091E000807F8093E0008091E1008E7E65
:102A90008093E1008DE08093E200559A209A81ECCA
:102AA00080937C0081EF85B987EE84B982E38BB98E
:102AB00082EF8AB9769A6E9880EF81BB10BA80E572
:102AC0008CBD81E08DBD0E94E1055F9A0E94E10509
:102AD0005C98E8EDF1E085918EBD00000DB407FE35
:102AE000FDCFE53EC1F75C9A81E88093640081E008
:102AF0008093650062E085EE91E00E944D1168E0F0
:102B000087EE91E00E944D119FB7F89422E436E0E1
:102B1000309389002093880083E0809380008BE1CC
:102B200080938100109285001092840080916F0044
:102B3000826080936F009FBF5E9AE4E1F0E080EDD9
:102B40009EEF60EF7FEF259135915591459128518A
:102B5000354909F4CA01809352019093530125919C
:102B60003591559145912851354909F4BA01609341
:102B70008705709388058BEA0E94C5050E94FE01B7
:102B80000E94611110926505109264056CE0F62EAA
:102B90005E98F89480915505811109C083B78160D2
:102BA00083BF7894889583B78E7F83BFF2CF1092CE
:102BB00055057894A0906605A9822FE741E050E082
:102BC00061E070E084ED94E00E94910962E081EFA1
:102BD00091E00E944D112FEF47E051E061E070E07D
:102BE00084E591E00E94910962E08FEE91E00E94FD
:102BF0004D11898182508E3F08F488C019811F5F72
:102C000019832981209366055E9A30916F05398377
:102C10003F3008F082C0363008F0B1C0353008F0DF
:102C2000A3C0B980AB2CB12CBB86AA868501000F4E
:102C3000111F0A0D1B1D80916605080F111D2DEA3D
:102C400038E040E070E060E090E080E00E94F20B4D
:102C500080916405909165050C9769F41092650563
:102C60001092640595012F5F3F4F237033273B87F8
:102C70002A8720936F050E94AB09882309F455C069
:102C80008091640590916505019690936505809308
:102C9000640580915605803218F48F5F8093560545
:102CA0000E94B609882309F440C0809156058032FD
:102CB000E1F5809164008E7F8093640080917A00BA
:102CC000806480937A0080917A0086FDFCCF009129
:102CD0007800109179000E94680630E020E09801A9
:102CE00011270027600F711F821F931F209164001E
:102CF000216020936400611571058105910511F033
:102D00000E94902485E080936F050FC08091540548
:102D10008F5F80935405198274CF49814F3009F435
:102D2000DCC14A3110F40C94601E80918605882322
:102D300039F0815080938605811102C00E94611193
:102D400080916D05882341F0815080936D0581113C
:102D500003C080E180936F0580E090E0892B09F447
:102D600017CF0E94000012CF86E080936F0510926B
:102D70006505109264051092580510925705A090B1
:102D80006405B0906505BB86AA86C5018370992746
:102D9000892B71F4809162059091630501978433CA
:102DA0001FEF910709F445C0909363058093620576
:102DB0008A859B8565E070E00E94FC24892B61F484
:102DC000809160059091610501968C3C9105B1F16F
:102DD00090936105809360050E94AB09882309F4F4
:102DE0005CC010916F052A853B852F5F3F4F309364
:102DF00065052093640580915705909158050196CB
:102E000090935805809357050E94B6098983165000
:102E10001830B0F5E12FF0E0EF5EF84E88700C94BA
:102E2000102523175E17A617BD17D617F0177217B0
:102E300090171092630510926205BACF1092610547
:102E400010926005C9CFA980A4FE0BC01CE2C12E60
:102E5000DD24D394D0925805C092570597E0909303
:102E60006F05882369F02CE231E0309358052093F8
:102E700057053CE030936F058091E505809380070E
:102E800080915705909158058C3221E0920728F4E3
:102E900001969093580580935705A0906605A982E6
:102EA00080916F058C3009F402C108F0A7C088300A
:102EB00008F0B8C089810E94640C37CFA980A7FEB2
:102EC0000BC0BCE2CB2EDD24D394D0925805C09227
:102ED000570596E090936F05882391F288E08093E0
:102EE0006F05CECFD980D7FE07C090917E0799237A
:102EF00019F0915090937E07198114FF07C09091AB
:102F00007E07923018F49F5F90937E07882319F014
:102F10008DE080936F05A98086E0A2FCE0CFB0CF62
:102F2000B980B7FC10927F07C980C4FE03C091E04E
:102F300090937F07882319F08FE080936F05D980E5
:102F4000D2FE9ECF1CE010936F059ACF882331F0FC
:102F50008091E40591E089278093E405A980A2FE91
:102F600005C087E080936F050E945A11B980809157
:102F70006F058F5FB4FCB3CF83CF882319F081E056
:102F80008093E505C980C2FE05C087E080936F0588
:102F90000E945A11D980D4FE05C080916F058F5FC1
:102FA00080936F05198117FF6BCF16C081111092A6
:102FB000E505A980A2FE05C087E080936F050E9409
:102FC0005A11B980B4FE05C080916F058F5F809360
:102FD0006F05C980C7FE54CF80916F0581507FCFA8
:102FE000882319F082E08093E505D980D2FEDACFFC
:102FF00087E080936F050E945A11D4CF8D3009F07D
:1030000059CF89810E94280C80917F0790E08C0124
:10301000000F111F080F191F075F1F4FC9800C0DEC
:10302000111D53C089810E94640C8091E40588239E
:1030300061F0B9800B2D10E02FEA38E340E062E147
:1030400070E088E590E00E94BC0B8091E50581303E
:1030500061F4C9800C2D10E02FEA38E340E066E20D
:1030600070E088E590E00E94BC0B8091E50581113D
:103070000CC0D9800D2D10E02FEA38E340E060E36A
:1030800070E088E590E00E94BC0B8091E5058230FD
:1030900009F04BCEA9800A2D10E02FEA38E340E07A
:1030A0006AE370E088E590E00E94BC0B3ECE898127
:1030B0000E94280C80917E0790E08C01000F111F68
:1030C000080F191FB9800B0D111D2FE331E640E0E9
:1030D00065E170E080E590E0E7CF80E180936F05E7
:1030E00081E080937B0780937C0710927D0790E0BE
:1030F00080E0FC01EA51FA4F2AE0DF01AC57BF4FF4
:103100001C921192DF01A95FBE4F1C922150A9F7BA
:103110000C968C36910569F760E070E080E00E94C3
:10312000B9050E94220289830E942802D9808D2C31
:10313000912CB12CA12C81149104A104B10439F07B
:103140000E944124A50194010E9499244B01809181
:103150007E07482D1981189F400D112403E020E0BF
:1031600061E478E080E00E94AC050E941D02D82E48
:103170000E942802C82EE92E198280917E0790E0D5
:103180008D519A4FFC01EE56FE4F2081A980A21668
:1031900050F58E2DB6010E94B9058A2D90E001965A
:1031A000F89EF001F99EF00D1124E951FA4FA0911B
:1031B0007E07B0E0AE58B84F2C9130E00E9422025A
:1031C000819321503040D1F70E942802E0917E0780
:1031D000F0E0EE58F84F8081C80ED11CE11C198137
:1031E0001F5F1983CACF81579E4FDC016C9130E07D
:1031F00040E0F39EC00111248D519A4FFC01E40F71
:10320000F11D5381DF01A957BF4F5C93E55FFE4F6E
:1032100050834F5F641790F73F5F231748F70E9472
:10322000412422E030E040E050E00E949924672BE6
:10323000682B692B09F04AC0E0917E07F0E0ED5160
:10324000FA4FDF01AE56BE4F7C9141E04F01B1E72E
:103250008B1ABEEF9B0A7417C8F1F4016081162F18
:1032600016954F9D90011124D901A559B94F50E0F1
:103270002D513A4F151741F10C91862F851B90E087
:103280005901A80EB91EF7E8AF0EB11CF501E08098
:103290000333A9F0043309F403E3F3E3EF1689F0F1
:1032A000E4E3AE2EEA1002C0F3E3EF2EED92820FBC
:1032B000931F89579F4FFC0100835F5FDBCF04E3BF
:1032C000ECCFE4E3EE2EF2CF4F5FC5CF0E94412456
:1032D00022E030E040E050E00E949924672B682B08
:1032E000692B09F073C080917E0790E08D519A4F51
:1032F000FC01E157FE4F508131E0BC016E567E4F1C
:103300007B876A875317C8F1AA85BB85EC90DE2CB2
:10331000D694632F70E0DB01AA58B94F40E0D41671
:1033200051F12C91EE2DE41B0E2F10E05B01FE9E5F
:10333000A00CB11C1124F501E659F94FE0812D33A1
:10334000B1F02E3309F42DE3ED3399F0EE3309F4A7
:10335000EDE3EC93F09EF001F19EF00D1124E60FE9
:10336000F71FE659F94F20834F5F1C96D8CF2EE305
:10337000EBCFEEE3EECF3F5FC5CF21E030E08E56DE
:103380009E4F521718F1DC014C9146954F5FE42F88
:10339000F0E0D901F49EA00DB11D1124A659B94F3A
:1033A0004C914D3389F04E3309F44DE3FE9EB0014C
:1033B000FF9E700D1124620F731FFB01E659F94F38
:1033C00040832F5F3F4FDDCF4EE3F0CFE0917E078C
:1033D000F0E0EE58F84F808190E001964C01092E04
:1033E000000CAA08BB08019709F471C00E9441248F
:1033F000A501940121503109410951090E949924E4
:10340000DC01CB010196A11DB11D8983E0917E07EE
:10341000F0E0EB58F84F808190E001964C01092EC6
:10342000000CAA08BB0801E010E020E030E00197A2
:1034300081F00E944124A5019401215031094109E4
:1034400051090E9499248B019C010F5F1F4F2F4F40
:103450003F4F10E0B980AB2CB12CBB86AA86F09E02
:103460006001F19ED00C112496012D513A4F690153
:10347000CA0CDB1C560137E8A30EB11CD5018C9198
:10348000833351F18D3309F0A1CF0E94412422E012
:1034900030E040E050E00E949924662309F47AC0AD
:1034A000613041F586E1F50180830F5F1F4FF09E8B
:1034B000B001F19E700D1124AA84BB84A60EB71E24
:1034C00095012659394F85E1D9018C9313C081E0CC
:1034D00090E0A0E0B0E099CF0E94412422E030E0EB
:1034E00040E050E00E949924662309F442C0613014
:1034F00009F448C042E0542E19868FEF850DE09103
:103500007E07F0E0EB58F84F9081981708F45AC204
:1035100011E090E0F89E6001F99ED00C1124A9847E
:10352000FA9C90011124A9014D515A4F5B874A879B
:103530000196F89E9001F99E300D1124B9016D514C
:103540007A4F1B0181E0850DF89EC0011124DC013A
:10355000AD51BA4FB98BA88BE0917E07F0E0EE58E1
:10356000F84F8081811750F519851F5F1987539493
:10357000C4CF81E0F5018083F601E857FF4F82E078
:103580008083B8CF84E0D5018C93F601E857FF4FD4
:1035900083E0F6CF8BE0F50180830F5F1F4FF09E35
:1035A000C001F19E900D1124AA84BB84A80EB91EFF
:1035B00095012659394FD901FC929CCFA12EB12CEF
:1035C000BB8AAA8AF601ED51FA4FEA0DFB1D8381F1
:1035D000833329F08D3309F4F9C01F5FBDCF0E94FA
:1035E000412426E130E040E050E00E9499246983C4
:1035F0006B83EA85FB85AA88BB88EA0DFB1DE9572A
:10360000FF4F6080862D0E948107E82EA52CB12CEB
:10361000BD86AC86EA89FB89F59CE00DF11D11247D
:10362000E659F94F7080872D0E9481078111E3943C
:10363000C6018D519A4FEFEFE10FE80FF92FF11D01
:10364000E957FF4F8080882D0E9481078111E39404
:1036500001E0010FA02EB12CF501EC0DFD1DE65986
:10366000F94F9080892D0E9481078111E394862D66
:103670000E941107682E872D0E9411078111639403
:10368000882D0E94110781116394892D0E941107D2
:1036900081116394EA85FB85EA0DFB1DE957FF4F15
:1036A0007080872D0E948107882E2C853D85F29E93
:1036B000C001F39E900D11248A0D9B1DFC01E6595B
:1036C000F94FA0808A2D0E94810781118394872D54
:1036D0000E941107B82E8A2D0E9411078111B39400
:1036E000E0917E07F0E0EE58F84F80811817A8F4BB
:1036F000E2E0E10FC6018D519A4FE80FF92FF11D5D
:10370000E957FF4F1081812F0E9481078111839417
:10371000812F0E9411078111B3948A899B89019698
:103720001B81153160F5EE2011F40C94C023960135
:103730002D513A4FAA88BB88A20EB31EA501495746
:103740005F4F662059F0EFE1DA01EC93820F931F8F
:10375000FC01E957FF4F90E2A92E0CC08110F3CF76
:10376000E1E0DA01EC93820F931FFC01E957FF4F70
:1037700032E0A32EA082102F30CFBB20D1F09601D3
:103780002D513A4FAA88BB88A20EB31EA5014957F6
:103790005F4FD9CF29812B502A3058F096012D51F7
:1037A0003A4FAA88BB88A20EB31EA50149575F4FA6
:1037B000D7CF96012D513A4FAA88BB88A20EB31ECF
:1037C000A50149575F4FE4E00C94D5230E944124A2
:1037D00026E130E040E050E00E9499246B836C8742
:1037E000EA85FB85AA88BB88EA0DFB1DE957FF4FD8
:1037F0000081802F0E948107E82EA52CB12CBF8666
:10380000AE86EA89FB89F59CE00DF11D1124E6598D
:10381000F94F6080862D0E9481078111E394AA24CC
:10382000AA94A10EB12CF501EC0DFD1DE659F94F3E
:103830007080872D0E9481078111E39488248394EE
:10384000810E912CF401EC0DFD1DE659F94F2081FC
:103850002983822F0E9481078111E394802F0E9487
:103860001107082F862D0E94110781110F5F872DE8
:103870000E94110781110F5F89810E941107811138
:103880000F5F4E855F85F49EC001F59E900D11245B
:10389000BC016D517A4F3B01A60EB71EF501E957E9
:1038A000FF4FB0808B2D0E948107A82E860C971C9D
:1038B000F401E957FF4F9080892D0E948107811103
:1038C000A3948B2D0E941107B82E892D0E941107F9
:1038D0008111B394E0917E07F0E0EB58F84F8081BE
:1038E000181798F4E889F9898A899B89E80FF91FE4
:1038F000E957FF4F9080892D0E9481078111A39481
:10390000892D0E9411078111B3949C859531F0F4A3
:10391000EE2009F455C7EA89FB89EC0DFD1DE65937
:10392000F94FBB2059F0A9E2A083AA88BB88A20C5A
:10393000B31C950129573F4FEAE22BC0AA20B1F1F1
:1039400009E2A02EA082F1CFBB2039F0EA89FB89E1
:10395000EC0DFD1DE659F94FF3CFAA2049F0EA8995
:10396000FB89EC0DFD1DE659F94FB6E1B08309C0A6
:10397000EA89FB89EC0DFD1DE659F94F86E1A82E79
:10398000A082AA88BB88A20CB31C950129573F4F7F
:10399000E5E1D901EC9321CE8B818B50EA89FB893B
:1039A000EC0DFD1DE659F94F8A30F8F28BE080836B
:1039B000AA88BB88A20CB31C950129573F4FD90197
:1039C000FC920BCE0E948E07C0907F0780917E07ED
:1039D00090E08D519A4FFC01EE56FE4FE0808157EA
:1039E0009E4FDC01DC90ED2DF0E03196FB87EA87FD
:1039F00099249394E914B0F166246394712C812C7A
:103A0000A92CB12CFA9C8001FB9C100D11240D51A6
:103A10001A4FD61490F0F801E60DF11DE957FF4F4B
:103A20005080852D0E94810781117394852D0E94FD
:103A30001107811183946394ECCFFA9CC001FB9C25
:103A4000900D11248D519A4FFC01E957FF4F708260
:103A5000AA84BB848A0D9B1DFC01E957FF4F80821D
:103A60009394C8CF992493948E2D90E00196F89E5C
:103A70008001F99E100D11240D511A4FD91488F1AF
:103A8000A92CB12CBB86AA8695012D513A4F59011C
:103A900066246394712C812CE61498F0F501ED56A0
:103AA000FF4F5080852D0E94810781117394852DD1
:103AB0000E9411078111839463943CE0A30EB11C12
:103AC000EBCFEA85FB85E659F94F7082AA84BB8467
:103AD000A00EB11E950129573F4FD9018C929394A6
:103AE000CDCFB1E0CB12D8C01982E0917E07F0E0D3
:103AF000EE58F84F80818695A980A81620F5E091B0
:103B00007E07F0E0EE58F84F8080912CB12CA12C6C
:103B100081149104A104B10439F00E944124A5014B
:103B200094010E9499244B018394E82DF0E0E6591A
:103B3000F94F80818F3F19F3BB24BA94B082198169
:103B40001F5F1983D2CF1982E0917E07F0E0EE5813
:103B5000F84F80818695A980A81608F469C019825B
:103B6000E0917E07F0E0EB58F84F80818695B980B0
:103B7000B81628F5E0917E07F0E0EB58F84F80800A
:103B8000912CB12CA12C81149104A104B10439F021
:103B90000E944124A50194010E9499244B01839421
:103BA000F89CF0011124E659F94F80818F3F11F301
:103BB000CC24CA94C08219811F5F1983D1CF198286
:103BC000E0917E07F0E0EB58F84F80818695A98060
:103BD000A81608F061C0E0917E07F0E0EB58F84FBE
:103BE0008080912CB12CA12C81149104A104B104EA
:103BF00039F00E944124A50194010E9499244B01AF
:103C00008394E0917E07F0E0EE58F84FE081F0E019
:103C1000F89CE00DF11D1124E559F94F80818F3F8B
:103C2000D1F2BB24BA94B08219811F5F1983C8CF27
:103C3000E0917E07F0E0EE58F84F8080912CB12C97
:103C4000A12C81149104A104B10439F00E944124F3
:103C5000A50194010E9499244B01E0917E07F0E0B8
:103C6000EB58F84F808190E00196E1E0E80DF89E76
:103C70009001F99E300D11242D513A4FE20FF32F90
:103C8000F11DE957FF4F80818F3F91F22FEF208385
:103C900019811F5F198358CF2CE0209359058AE0C2
:103CA00080935A0588E080935B0586E080935C05ED
:103CB00084E080935D0582E080935E0510925F054D
:103CC000E09066050E94AB09882309F463C2A090C6
:103CD0006405B090650500916F050E94B609182F24
:103CE00095012F5F3F4F3B872A87309365052093CF
:103CF0006405003109F005C286FF12C080917B0780
:103D0000E0917E07F0E0EE58F84F9081891708F0B7
:103D10005EC08F5F80937B071092650510926405EB
:103D200015FF0BC080917B07823038F08150809363
:103D30007B07109265051092640514FF11C08091F5
:103D40007C07E0917E07F0E0EB58F84F90818917EF
:103D500038F48F5F80937C0710926505109264059C
:103D600017FF0BC080917C07823038F08150809320
:103D70007C07109265051092640513FF9DC0109298
:103D800065051092640560917C07262F30E08091D4
:103D90007B07482F50E0F29EF001F39EF00D1124B6
:103DA000ED51FA4FE40FF51F9381963109F4E5C008
:103DB00050F5943009F465C070F4923009F456C09F
:103DC00008F05AC0913051F132E0398360C083E18C
:103DD00080936F05A5CF9C3009F4AAC0953109F4F2
:103DE000B8C09B3089F796E193832F5F3F4FF29ED7
:103DF000F001F39EF00D1124ED51FA4FE40FF51F81
:103E000095E193830FC09A3209F4CBC078F49032D5
:103E100009F485C0993239F39F31B1F694E0938368
:103E200093E094830E948808898331C0943309F415
:103E30007BC030F4933341F691E0938392E0F1CF6D
:103E40009D3309F4BEC09E3309F0BECF2150310925
:103E5000F29ED001F39EB00D1124AD51BA4FA40FC4
:103E6000B51F9BE013969C93F38271C093E09383FC
:103E700094E092838150D6CF84E3838383E382836B
:103E8000A3CF83E3838384E3848342E049830E9456
:103E90008E070E94D108882319F081E180936F0575
:103EA0008091E405882341F0A980AA2009F498C0F4
:103EB0002A2D213009F499C012FF6CC110926505BA
:103EC0001092640580917C0790E020917B0730E0A0
:103ED000F89EF001F99EF00D1124ED51FA4FE20F1A
:103EE000F31F6381663109F4FDC008F099C06430A6
:103EF00009F4ACC008F07BC0623009F4BDC008F022
:103F0000BBC0613009F4A2C00E948E070E94D10894
:103F1000882309F465C481E180936F053BC194E077
:103F2000928393E09383A6CF91E0928392E0FACFBD
:103F300075E1738321503109929FF001939FF00D39
:103F40001124ED51FA4FE40FF51F96E19383615070
:103F500069CF6EE3638321503109F29EC001F39E65
:103F6000900D11248D519A4F840F951F2DE3DC0184
:103F700013962C93B2E0B9838ACF8DE383832F5FAE
:103F80003F4FF29EC001F39E900D11248D519A4F28
:103F9000840F951FBEE3AB2EFC01A38222E0298390
:103FA00076CF21503109F29ED001F39EB00D11243D
:103FB000AD51BA4FA40FB51F96E113969C9395E1AE
:103FC000C5CF9BE093832F5F3F4FF29EF001F39E9E
:103FD000F00D1124ED51FA4FE40FF51FF38222CFBB
:103FE0002F9880E28093860567CF2E98FACF6C30A9
:103FF00009F446C06531A1F16B3009F085CF49E283
:1040000043830196F89EA001F99E500D11244D5155
:104010005A4F420F531F8AE2DA0113968C9374CFE2
:104020006A3209F44EC060F4603209F16932C1F1BC
:104030006F3109F069CF83E3838384E3848364CFA2
:104040006433D1F038F4633309F05ECF8FE18383BA
:1040500080E2F4CF6D3309F445C06E3309F054CFDC
:104060000197F89EA001F99E500D11240FC083E323
:10407000828384E3838348CF8FE1828380E2FACF17
:104080000197689FA001699F500D11244D515A4F0F
:10409000420F531F89E2DA0113968C938AE2EACF2A
:1040A0004DE343830196F89EA001F99E500D112423
:1040B0004D515A4F420F531FEEE3DA011396EC9322
:1040C00023CF0197F89EA001F99E500D11244D5168
:1040D0005A4F420F531F8DE3DA0113968C93BEE3C0
:1040E000B38312CF49E243830196F89EA001F99E63
:1040F000500D11244D515A4F420F531F8AE2FA01BD
:10410000B9CF0131D9F4BA85B0FD10C0E9E5F5E0C9
:104110008191823320F4DF0111978F5F8C93A0E6A9
:10412000AA2EA5E0BA2EAE16BF0691F780915905CA
:10413000823381F51C7071F185E0EECE847229F036
:1041400080E180936F0510926D0517FF09C0809183
:104150006F05843128F0815080936F0510926D05B2
:1041600014FF09C080916F05863128F48F5F80931A
:104170006F0510926D0513FF0DC0E0917E079091C1
:104180006F05943109F4AFC008F080C011E093319D
:1041900009F4E0C080916405909165059C0123704D
:1041A0003327232B79F42091620530916305215048
:1041B00031092833FFEF3F0709F494C130936305B9
:1041C0002093620565E070E00E94FC24892B69F46D
:1041D00080916005909161050196883C910509F4F4
:1041E00086C1909361058093600580917E0782303F
:1041F000B9F1AE2CB12CBB86AA86C0906005D090D8
:104200006105850122EB3CEA40E0B60188E590E0DB
:104210000E94F20BB601685C71090A851B8522EBCE
:104220003CEA40E088E590E00E94F20BC090620515
:10423000D09063050A851B8520E932EB40E0B6018A
:104240008CE690E00E94F20BB60168537F4F0A851E
:104250001B8520E932EB40E08CE690E00E94F20BF7
:10426000B0906F05B9821B2D173108F045C112318E
:1042700008F047C2103109F48DC1113109F4AEC103
:1042800061E08E2D0E94020D0C949516953121F05F
:10429000963109F451CF7ECFF0E0ED51FA4FDF01B6
:1042A000AE56BE4F4C9120E08F0101571E4FD801F2
:1042B0005C9130E0F29EC00111248D519A4FDC01D7
:1042C000A30FB11D6D01E7E8CE0ED11CF601608190
:1042D00013966C933F5F531790F72F5F421738F791
:1042E0000E948E0757CF8E2F90E08D519A4FFC0180
:1042F000EE56FE4F308121E03397321708F459C053
:104300004081498344244394F29EB00111246D51AD
:104310007A4F5981541508F44AC0442D50E0DB010E
:10432000A40FB51F1396AC90AB821A2D133330F047
:10433000153368F0AA2DAD53A23048F0460F571F31
:10434000DA01A957BF4F4C915B815413A9C0439424
:10435000E0CF1F5FE0917E07F0E0EB58F84F8081DF
:104360008117F0F001E0F19E6001112496012D51BA
:104370003A4F3B872A87E0917E07F0E0EE58F84FEE
:104380008081801730F3EA85FB85E00FF11DDF01A6
:10439000A55FBE4F8C9183830E948E070F5FEBCF8A
:1043A00081E080937B0780937C0780E1B5CD2F5F10
:1043B000A4CF41E050E081579E4F242F341708F4DA
:1043C00073C0DC01BC91B98344244394F49ED001B2
:1043D000F59EB00D1124AD51BA4FE981E41508F4F2
:1043E0005CC0642D70E0FD01E60FF71FA380AB8277
:1043F0001A2D133328F0153328F01D53123098F17D
:104400004394EBCFDF01A957BF4FAC90A886BB24E4
:10441000B394B40CBF82E857FF4FC080CD822E8387
:1044200011E01A833FEF3C834092670520936805B3
:10443000A884A0926905BF80B0926A05CE80C09220
:104440006B05DD80D0926C05AC80A0926D05BA80C2
:10445000B0926E051B2D113049F140927B072093DD
:104460007C0787E159CDE957FF4FA080A886BB2480
:10447000B394B20EBE824F5F5F4FECE0CE2EC49E6F
:10448000C001C59E900D1124680F791FFB01E659EC
:10449000F94FD080DD824F82C3CF4F5F5F4F8DCF0A
:1044A0001A8240EF4C83C0CF20E0BECFF29EF001D5
:1044B0001124ED51FA4FE40DF11DA884A382BE80B2
:1044C000FB9CF0011124ED51FA4FCF80EC0DF11D52
:1044D000DD80D38240927B0720937C070E948E0769
:1044E00088E11ACD10926305109262056BCE10928E
:1044F00061051092600579CE2981293108F0C0CE7E
:104500000E947401811104C080917E07823099F06D
:1045100080916E0590E08C01000F111F080F191F8C
:104520000E0D111D22EA30E141E063E070E086E506
:1045300090E00E94BC0B61E08E2D0E94020D0E9453
:10454000740181110C94951680917E07823011F0D0
:104550000C949516AE2CB12C8501015F1F4F2EE3F4
:1045600037ED40E070E060E082E590E00E94F20B01
:1045700080916E0590E08C01000F111F080F191F2C
:104580000A0D1B1D28EB3AE141E063E070E085E590
:1045900090E0F2C080917E07823080F00E9474012A
:1045A00081110CC00E2D10E024E930E141E061E002
:1045B00070E08BE790E00E94F20B62CE80916D0577
:1045C00081115ECE0E2D10E020E533EC40E063E07B
:1045D00070E08CE590E00E94BC0B52CE60E08E2D26
:1045E0000E94020DAE2CB12CBB86AA86E091590523
:1045F000F0E0ED50FE4F6491062E000C770B6051F9
:104600007109850121E033E840E083E090E00E94F9
:10461000BC0BE0915A05F0E0ED50FE4F6491062E80
:10462000000C770B605171090A851B8523EB34E878
:1046300040E085E190E00E94BC0BE0915B05F0E07A
:10464000ED50FE4F6491062E000C770B60517109FE
:104650000A851B8525EF36E840E08CE290E00E9459
:10466000BC0BE0915C05F0E0ED50FE4F6491062E2E
:10467000000C770B605171090A851B8527E339E827
:1046800040E084E490E00E94BC0BE0915D05F0E026
:10469000ED50FE4F6491062E000C770B60517109AE
:1046A0000A851B8521ED3AE840E084E590E00E9410
:1046B000BC0BE0915E05F0E0ED50FE4F6491062EDC
:1046C000000C770B605171090A851B8523E83CE8D3
:1046D00040E085E690E00E94BC0BE0915F05F0E0D1
:1046E000ED50FE4F6491062E000C770B605171095E
:1046F0000A851B8525E33EE840E086E790E00C94C0
:1047000054180E947401811104C080917E07823088
:1047100099F029812251330B8901000F111F020FDB
:10472000131F0E0D111D20E533EC40E063E070E037
:104730008CE590E00E94BC0B60E08E2D0E94020D83
:104740000E94740181110C94951680917E0782302D
:1047500011F00C94951649814251550B8A01000FB6
:10476000111F040F151F0E0D111D2EE337ED40E034
:1047700070E060E082E590E00E94F20B0C949516E8
:1047800061100C94BD1B81100C94D91BBB2011F43B
:104790000C94CA1B96012D513A4FAA88BB88A20ED1
:1047A000B31EA50149575F4FE1E0DA01EC93820F98
:1047B000931FFC01E957FF4F23E0A22E0C94BA1B74
:1047C0000111C2C8A110CBC8BB2009F4E5C8EA8911
:1047D000FB89EC0DFD1DE659F94F8BE08083D1C8B4
:1047E0008091640590916505DECC8F929F92AF9287
:1047F000BF92CF92DF92EF92FF92CF93DF93EC01C3
:10480000688179818A819B81611571058105910596
:1048100021F464E279ED8BE597E02DE133EF41E09F
:1048200050E00E94992449015A019B01AC01A7EA7A
:10483000B1E40E94B8246B017C01ACEEB4EFA50199
:1048400094010E94C624C60ED71EE81EF91EF7FE6C
:1048500006C081E0C81AD108E10880E8F80AC882D9
:10486000D982EA82FB82C701B6019F77DF91CF919F
:10487000FF90EF90DF90CF90BF90AF909F908F9080
:1048800008958F929F92AF92BF92CF92DF92EF9254
:10489000FF9260910C0170910D0180910E01909139
:1048A0000F01611571058105910521F464E279ED2F
:1048B0008BE597E02DE133EF41E050E00E94992431
:1048C00049015A019B01AC01A7EAB1E40E94B82456
:1048D0006B017C01ACEEB4EFA50194010E94C624EB
:1048E000C60ED71EE81EF91EF7FE06C081E0C81AE4
:1048F000D108E10880E8F80AC0920C01D0920D01BD
:10490000E0920E01F0920F01C701B6019F77FF9070
:10491000EF90DF90CF90BF90AF909F908F900895D1
:1049200060930C0170930D0180930E0190930F0121
:104930000895052E97FB1EF400940E94B02457FDA5
:1049400007D00E94CB2407FC03D04EF40C94B02473
:1049500050954095309521953F4F4F4F5F4F0895AB
:1049600090958095709561957F4F8F4F9F4F0895DB
:104970000E94ED24A59F900DB49F900DA49F800DE3
:10498000911D11240895B7FF0C94B8240E94B824F7
:10499000821B930B0895A1E21A2EAA1BBB1BFD01DB
:1049A0000DC0AA1FBB1FEE1FFF1FA217B307E4070E
:1049B000F50720F0A21BB30BE40BF50B661F771F66
:1049C000881F991F1A9469F7609570958095909546
:1049D0009B01AC01BD01CF010895A29FB001B39F1F
:1049E000C001A39F700D811D1124911DB29F700DF8
:1049F000811D1124911D0895AA1BBB1B51E107C005
:104A0000AA1FBB1FA617B70710F0A61BB70B881F5E
:104A1000991F5A95A9F780959095BC01CD010895ED
:104A2000EE0FFF1F0590F491E02D0994F894FFCF4D
:104A3000FFFFFFFF00E10000000000000100000098
:104A400006080A05070909060600C1808100000062
:104A5000000000007D02E5059E029302E402A2022E
:0E4A6000C00200000000800690030E070D0744
:00000001FF
